:02000002F0000C
:1040000000000420E5AE0F000DAF0F000FAF0F0052
:1040100011AF0F0013AF0F0015AF0F00000000002D
:10402000000000000000000000000000C5450F0077
:1040300019AF0F00000000001BAF0F002D4E0F0046
:10404000414F0F001FAF0F001FAF0F001FAF0F003A
:104050001FAF0F001FAF0F001FAF0F001FAF0F00EC
:104060001FAF0F001FAF0F001FAF0F001FAF0F00DC
:104070001FAF0F001FAF0F001FAF0F001FAF0F00CC
:104080001FAF0F0095730F001FAF0F001FAF0F0082
:1040900051740F001FAF0F00A54A0F001FAF0F0094
:1040A0001FAF0F001FAF0F001FAF0F001FAF0F009C
:1040B0001FAF0F001FAF0F00000000000000000046
:1040C0001FAF0F001FAF0F001FAF0F001FAF0F007C
:1040D0001FAF0F001FAF0F001FAF0F00E9830F00CE
:1040E0001FAF0F001FAF0F001FAF0F000000000039
:1040F000000000001FAF0F00000000001FAF0F0006
:1041000000000000000000000000000000000000AF
:10411000000000000000000000000000000000009F
:10412000000000000000000000000000000000008F
:10413000000000000000000000000000000000007F
:10414000000000000000000000000000000000006F
:10415000000000000000000000000000000000005F
:10416000000000000000000000000000000000004F
:10417000000000000000000000000000000000003F
:10418000000000000000000000000000000000002F
:10419000000000000000000000000000000000001F
:1041A000000000000000000000000000000000000F
:1041B00000000000000000000000000000000000FF
:1041C00000000000000000000000000000000000EF
:1041D00000000000000000000000000000000000DF
:1041E00000000000000000000000000000000000CF
:1041F00000000000000000000000000000000000BF
:1042000010B5054C237833B9044B13B10448AFF310
:1042100000800123237010BD2486002000000000D0
:104220009CBE0F0008B5034B1BB103490348AFF315
:10423000008008BD00000000288600209CBE0F0002
:10424000A3F5803A704700BF174B002B08BF134BF4
:104250009D46FFF7F5FF00218B460F461348144A91
:10426000121A00F05FF80E4B002B00D098470D4B50
:10427000002B00D098470020002104000D000D48BD
:10428000002802D00C4800F00FF900F027F82000B9
:10429000290000F009FA00F011F800BF0000080042
:1042A0000000000000000000000004202486002020
:1042B00014CE0020A9440F00B5440F0008B500211A
:1042C000044600F08BF8044B1868C36B03B19847A1
:1042D000204600F04FF900BF98BB0F0070B50D4E9F
:1042E0000D4D761BB61006D0002455F8043B013462
:1042F0009847A642F9D1094E094D761B07F040FCBC
:10430000B61006D0002455F8043B01349847A64265
:10431000F9D170BD18860020188600202086002064
:1043200018860020830730B548D0541E002A3FD09D
:10433000CAB2034601E0013C3AD303F8012B9D07C2
:10434000F9D1032C2DD9CDB245EA05250F2C45EA2C
:10435000054536D9A4F1100222F00F0C03F1200E0E
:10436000E6444FEA121C03F1100242E9045542E907
:10437000025510327245F8D10CF1010214F00C0F05
:1043800003EB021204F00F0C13D0ACF1040323F082
:1043900003030433134442F8045B9342FBD10CF053
:1043A00003042CB1CAB21C4403F8012B9C42FBD17C
:1043B00030BD64461346002CF4D1F9E70346144699
:1043C000BFE71A46A446E0E7024B13B1024800F0EB
:1043D0006BB8704700000000B5440F002DE9F84F9E
:1043E0002F4B2DED028B834618680F4600F078F8AE
:1043F0002C4BD3F80080D8F84861AEB108EE10BA63
:104400004FF001094FF0000A7468651E0CD40134A6
:1044100006EB840487B1D4F80031BB420CD0013DD7
:104420006B1CA4F10404F5D1BDEC028B1C4B186885
:10443000BDE8F84F00F056B873682268013BAB4204
:104440000CBF7560C4F800A0002AE8D0D6F8880137
:10445000D6F804B009FA05F101420BD19047726811
:104460005A4513D1D8F84831B342D8D01E46002E51
:10447000CAD1D9E7D6F88C0101420CD1D4F880100A
:1044800018EE100A904772685A45EBD0D8F8486188
:10449000002EB9D1C8E7D4F880009047DFE700BF0D
:1044A0003084002098BB0F00002301461A461846AE
:1044B00000F01AB838B5084B084D5B1B9C1007D0AC
:1044C000043B1D44013C55F804399847002CF9D1B0
:1044D000BDE8384007F05ABB248600202086002023
:1044E000704700BF704700BF2DE9F047DFF880A09C
:1044F0000646DAF8000098460F469146FFF7F0FFAF
:104500001A4B1B68D3F8484124B365681F2D26DC7D
:104510005EB96B1C0235DAF80000636044F8257060
:10452000FFF7E0FF0020BDE8F08704EB85010123E1
:10453000C1F88890D4F88821AB401A43022EC4F801
:104540008821C1F80881E4D1D4F88C211343C4F840
:104550008C31DEE703F5A674C3F84841D5E7DAF8F5
:104560000000FFF7BFFF4FF0FF30DCE798BB0F0004
:1045700030840020FEE700BF38B50C46E8B9096872
:10458000C9B10F4DA9420BD06B1A3B2B11D93C225C
:10459000284606F0D5FC03E0CA5CEA54013BFBD296
:1045A000074800223C2103F059FA0023A887236022
:1045B00038BD3D23F2E70E23F9E70123F7E700BFFB
:1045C000807F0020074A6FF002039E4502D1EFF37F
:1045D000098101E0EFF308818869A0F10200007809
:1045E000104700BF79450F0038B50446A8B10D4DFE
:1045F00000223C21284603F031FAAB8F83420ED1D2
:104600002A4605F13C0152F8040B44F8040B8A4297
:10461000F9D10133AB87002038BD0E20FCE70B2019
:10462000FAE700BF807F0020BFF34F8F0549064B9C
:10463000CA6802F4E0621343CB60BFF34F8F00BF40
:10464000FDE700BF00ED00E00400FA054BDF704716
:1046500010DF704711DF704713DF704718DF7047B6
:1046600060DF704769DF704761DF704708B54FF062
:10467000E023D3F8F03DDB0700D500BEFFF7D4FF01
:10468000014B1878704700BF468600201FB50023F5
:10469000CDE901330393684602230093FFF7DEFF61
:1046A00005B05DF804FB00002DE9F04F4FF08043AA
:1046B00089B0D3F81C85D3F81C25A8F1B104D4F136
:1046C000000A4AEB040AB12A18D0D3F81C45A4F119
:1046D000A800444244414B4D04F001032B704FF0BD
:1046E0008043D3F81C75D3F81C954CB1D3F81C65E6
:1046F0004FF080430022C3F81C251AE00124EAE7AA
:104700004E2F03D1D3F81C650124F1E7B9F1570FFF
:10471000F8D03D4A126811683C4A914203D1D3F85F
:104720000024D107EED44FF08043D3F81C656D2EE2
:10473000DED0374B40F20152C3F8402500F0CAFAF0
:1047400000F0F0FE002000F079FB00F06BFF78B184
:10475000052000F073FB00F077FF08B103F036F995
:1047600000F098FF08B103F031F9062000F066FB75
:104770006D2E284E00F01C811CB9122000F03AFA70
:1047800004462B782BBB122000F034FA10B1012024
:1047900000F030FA00F00100287000F0F5FDDFF8BD
:1047A0007CB0034630B12CB9174A126811681A4A16
:1047B000914244D04FF440525168B1420ABF9268CE
:1047C0004FF4905202F5007212685A4528D1012424
:1047D00035E00120DEE71C4631E04FF480030B603A
:1047E00070E0022000F02AFBA7F14E035842584126
:1047F00003F0FEFDBAE000221146CEE003F048FED1
:10480000D6E000BF4686002034840020D51A5A0026
:1048100000A00040DBE5B1517E67E54E7CB0EE873D
:10482000002CD4D1002BD6D06F4A70491268019366
:1048300011606F4A6F4842F001029047019B4FF4AC
:1048400040525168B14208BF926867490CBF02F5F7
:1048500000724FF49052096812685A450CBF664ABC
:1048600000220A6014B9002B40F0A2802C78002CA2
:10487000B7D0082000F0E2FAB8F1B10F01D0FFF78D
:1048800005FF4FF47420FFF7E7FE08B103F09EF830
:104890005A4B5B491868039003A8FFF7D9FE08B18B
:1048A00003F094F8574991F816335A09EC23134151
:1048B000DA0707D5544B9A68002A8ED01A6842F45A
:1048C00080021A60514B04930C22002105A8FFF7C7
:1048D00029FD40F20113049A059305A94020FFF732
:1048E000C1FE08B103F072F80C22002105A8FFF701
:1048F00019FD9DF81430049A43F0010305A9A02086
:104900008DF81430FFF7AEFE08B103F05FF80C220B
:10491000002105A8FFF706FD01238DF81430049A45
:10492000F72305A92320ADF81630FFF79BFE08B149
:1049300003F04CF80C22002105A8FFF7F3FC01233B
:104940008DF814308DF81630049A062305A920201E
:10495000ADF81830FFF786FE08B103F037F804A869
:10496000FFF77EFE08B103F031F8A2464FF4405342
:1049700028785A68B2420ABF9B684FF4905303F5F7
:1049800000731B685B4505D0B9F1570F02D04E2F5D
:104990007FF431AF012240F6B83100F0DBFD08B101
:1049A00003F014F82B78002B3FF428AFFFF752FEEA
:1049B00000F0D8F900F0E8FCA0B100F033FE88B9AF
:1049C0004FF440535B68B34206D1BAF1000F01D1F6
:1049D000FFF75CFEFFF73EFE034B1B6800221A60E8
:1049E00000F0F4FDFFF720FE34840020D51A5A00B1
:1049F000A0BB0F000048E8017E67E54E9CBB0F009E
:104A00006D460F0000E100E0A09C00200080002027
:104A100010B5FEB04FF4FA730DF1020101A8ADF824
:104A20000230FFF721FE044640B9BDF80430102BD8
:104A300007D0112B0CD001A801F0BEF820467EB0A3
:104A400010BD054B01221A70072000F0F7F9F2E7BC
:104A5000014B18700820F8E74586002013B501A81F
:104A6000FFF7F4FD044660B9019802F049FB019B91
:104A70000A2B09D0092B09D00B2B02D1012004F0FD
:104A800095FB204602B010BD2046F8E70220F6E76D
:104A900008B5FFF7BDFF0528FBD1FFF7DFFF0528AD
:104AA000F7D108BD0021024A084602F0F9BE00BF56
:104AB000914A0F0038B50C4C21684B1C054612D0AA
:104AC0000A484FF4805206F02BFA48B115B120681D
:104AD00000F092FA054920684FF4806200F0ACFAC9
:104AE0004FF0FF33236038BD388400204886002013
:104AF0002DE9F041DFF84480044624F47F65184630
:104B0000D8F8003025F00F05AB420E46174609D005
:104B1000FFF7D0FF0848C8F800504FF480522946EC
:104B200006F00EFA0448C4F30B043A46314620441A
:104B3000BDE8F04106F004BA488600203884002021
:104B40000B2970B50446154608462FD9238905332D
:104B500004EB43012044431ADAB2012A26D98142E8
:104B600024D8134806F0ECF92388522B06D1AB0762
:104B700011D062884CF668639A420CD00F2014E082
:104B800034F8022B824204D0AE89964203F101032D
:104B900008D1002009E0218900230A344FF6FE7075
:104BA0004FF440559942EBD80B2070BD0920FCE72B
:104BB0004896002008B5002202F050FF034B1B88E6
:104BC000834214BF0B20002008BD00BF4896002080
:104BD0001F2884BF00F01F00044B054A98BF4FF008
:104BE000A04300F5E07043F8202070470003005018
:104BF0000C0003001F288ABF064B4FF0A04300F0B3
:104C00001F00D3F8103523FA00F0C04300F0010074
:104C1000704700BF0003005000234FF0FF32836055
:104C2000C0F80035C0F86025C0F86425C0F86825D4
:104C3000C0F86C2540F2FF32C0F80435C0F80825F2
:104C4000C0F80C35C0F81035C0F81435C0F8203560
:104C5000C0F82435704700001B4B00221F2930B5D7
:104C6000C3F800258BBF01F01F030B46174A4FF016
:104C7000A04203F5E074032542F82450012404FA0D
:104C800003F3C2F80C3500F5AC700F4B002243F86B
:104C90002010FF21C3F804250220C3F808150421C1
:104CA000C3F80C15C3F810050948C3F81425C3F858
:104CB0002005C3F82415C3F82825C3F82C25C3F80C
:104CC0000045C3F8102130BD00C001400003005072
:104CD000489800204FF0804310B501210024D9608E
:104CE0001220C3F818459960FFF772FF0846FFF7D6
:104CF0006FFF154B4FF4C8500B43984707212046D0
:104D0000FFF7AAFF114A1E21082002F0A5FD08B1F5
:104D100002F05CFE02F006FD0D490E4BE02081F82A
:104D200023001B684FF47A72B3FBF2F3013BB3F13B
:104D3000807F08D24FF0E0225361002381F82300E6
:104D400093610723136110BDB0BB0F005496002080
:104D500000ED00E03C8400200148FFF75DBF00BF8C
:104D600000C001404FF0E023002110B51961FFF7AA
:104D7000F3FF144B144C4FF40032C3F8802003F1BE
:104D8000C04303F53C534FF48032C3F84823C3F8C3
:104D9000082301225A609A604FF080430220DA60B3
:104DA0000B461F2B1A46C6BF03F01F0221464FF0C9
:104DB000A04102F5E0720133302B41F82200F0D11E
:104DC00010BD00BF00E100E000030050074B23F8D6
:104DD0001010074B002282B0C3F81021D3F8102125
:104DE0000192019A01229A6002B07047489800200F
:104DF00000C001400B4A0C4B11681B68B1FBF3F279
:104E000003FB1211B1EB530F4FEA530288BF591A3B
:104E10004F235943B1FBF2F1C1F1FF0189B20020E8
:104E2000FFF7D4BF4498002050980020024A13682E
:104E300001331360FFF7DEBF449800201B490A6866
:104E4000082823D8DFE800F013051322221A1E24B5
:104E50002A00174B40F6B83018604FF47F4303F038
:104E6000103323F080539A4218BF0B607047104BE9
:104E70004FF4967018604FF47F03F0E70C4B6422F8
:104E80001A6070470A4B40F6B83018601346E6E7E0
:104E9000074B40F6B8301860FF23E0E7044B4FF4AF
:104EA000967018604FF0FF13D9E700BF54980020A8
:104EB0005098002000F1804382B01A68002A14BF85
:104EC0000120002004D000221A601B680193019B7E
:104ED00002B070470F4A1378D3B903784FF080417E
:104EE000C3F34003C1F88035037803F00103C1F830
:104EF0007835094B1968C90706D4E02183F80013F7
:104F00000121C3F880111960012304481370704710
:104F1000034870476498002000E100E00000AD0BFA
:104F20000C00AD0B014B02681A60704760980020BE
:104F30004FF080434FF46072C3F8042370470000C1
:104F400010B54FF08043D3F80443620707D54FF400
:104F50008470FFF7AFFF10B11E4B1B689847A30684
:104F600008D54FF48A70FFF7A5FF18B11A4B00203F
:104F70001B689847600608D54FF48C70FFF79AFFBE
:104F800018B1154B01201B689847210608D54FF42E
:104F90008E70FFF78FFF18B1104B00201B689847E9
:104FA000E20508D54FF49070FFF784FF18B10B4B62
:104FB00001201B689847A3050AD54FF49270FFF7AC
:104FC00079FF28B1054BBDE810401B680220184747
:104FD00010BD00BF589800205C9800206098002009
:104FE000044AD2F80034DB07FBD50160BFF35F8FC2
:104FF000704700BF00E001404FF080531A69B0FBDA
:10500000F2F302FB130373B9084B0222C3F8042521
:10501000C3F80805D3F80024D207FBD500220448C2
:10502000C3F8042570470348704700BF00E0014003
:105030000000AD0B0A00AD0BF8B50B4B1546012275
:1050400006460F46C3F804250024A54204D1064BAA
:105050000022C3F80425F8BD57F8241006EB84009D
:10506000FFF7BEFF0134F0E700E00140BFF34F8FD0
:105070000549064BCA6802F4E0621343CB60BFF3F4
:105080004F8F00BFFDE700BF00ED00E00400FA0510
:105090004FF08053D3F83021082A06D1D3F83431A9
:1050A000032B02D8024AD05C70470020704700BF33
:1050B000B6BB0F0008B54FF08053D3F83021082A53
:1050C0004ED14FF080420021C2F80C11C2F81011ED
:1050D000C2F8381502F54042D3F80414C2F820157E
:1050E000D3F80814C2F82415D3F80C14C2F8281504
:1050F000D3F81014C2F82C15D3F81414C2F83015D4
:10510000D3F81814C2F83415D3F81C14C2F840159B
:10511000D3F82014C2F84415D3F82414C2F8481563
:10512000D3F82814C2F84C15D3F82C14C2F8501533
:10513000D3F83014C2F85415D3F83414C2F86015FB
:10514000D3F83814C2F86415D3F83C14C2F86815C3
:10515000D3F84014C2F86C15D3F84434C2F8703553
:10516000FFF796FF18B1494B494AC3F88C26FFF761
:105170008FFF18B1474BFB22C3F81825FFF788FFB4
:1051800070B14FF080414FF08053D1F8E42ED3F846
:10519000583222F00F0203F00F031343C1F8E43E2C
:1051A000FFF776FF20B13C4B4FF40072C3F8402666
:1051B0004FF08053D3F83031082B09D14FF08043A2
:1051C000D3F80024D10744BF6FF00102C3F80024D4
:1051D000324AD2F8883043F47003C2F88830BFF303
:1051E0004F8FBFF36F8F4FF01023D3F80C22D207ED
:1051F0001DD52B4B0122C3F80425D3F80024002A27
:10520000FBD04FF01022D2F80C3223F00103C2F889
:105210000C32234BD3F80024002AFBD00022C3F821
:105220000425D3F80024002AFBD0FFF71FFFD3F892
:105230000022002A03DBD3F80432002B22DA184BB9
:105240000122C3F80425D3F80024002AFBD04FF034
:1052500010221221C2F80012D3F80024002AFBD039
:105260004FF010231222C3F804220D4BD3F8002470
:10527000002AFBD00022C3F80425D3F80024002A1A
:10528000FBD0D2E7074B084A1A6008BD0050004027
:105290004881030000F000400090024000ED00E073
:1052A00000E001403C8400200090D00313DF7047F1
:1052B00018DF7047064B1878012803D1012904BF75
:1052C0000221197012B1104602F080BB704700BF76
:1052D0009598002008B5FFF7D3F988B111481C2133
:1052E00001F09AFF08B102F071FB0F490D4800234D
:1052F0001C2201F081FF98B1BDE8084002F066BBB6
:105300004FF47F20FFF778FE072207494FF47F20F4
:10531000FFF792FE054B1A78012A04BF02221A7089
:1053200008BD00BF8C980020989800209598002018
:1053300070B5124C124D134ED4F800347BB1C4F842
:105340000056C4F80456C4F80856C4F80C56C4F8FD
:105350001056C4F81456C4F81856C4F81C5602F077
:1053600007FB05F0B9FD20B104F02EFC002005F08C
:1053700035F83378023B022BDED870BD00000140C7
:105380003546526E9598002013B54FF44053124A9B
:10539000596891420CBF9C684FF4805401A800F0FA
:1053A000A7F92368013302D16368013311D0019B4F
:1053B0001A88012A0DD1588820B199680022204608
:1053C00002F04CFB019B5B881B1A5842584102B00B
:1053D00010BD0020FBE700BFDBE5B15184B02DE933
:1053E000F34108AC84E80F009DF82040BDF822800E
:1053F00001A80F4616461D4600F07AF954B9384BFD
:105400000122FF21A3F802809D601A809980354B0C
:105410001A7012E0012C17D1314BBA192A449A6044
:10542000A5221A80FF229A800C9AA3F80280C3E971
:1054300003765D619A612B4B1C70FFF74BFF02B046
:10544000BDE8F04104B07047032C0FD1019A244B02
:1054500011881980518892689A60C3E90376AA225C
:1054600059809A805D611F4B0122D1E7022C15D132
:10547000019A1B4B1188A5290AD100229A60FF22AC
:105480001A60FF229A800022C3E903225A61EAE7E8
:1054900019805188926859809A60F2E7052C0ED1E4
:1054A000FFF7EEF840B100F09BFD08B102F08EFA74
:1054B0000C4B03221A70C2E700F010FAF5E7042C37
:1054C00008D1074B00229A60FF221A60019A928845
:1054D0009A80B2E7062CB2D1024B0422EAE700BF61
:1054E000989800209598002000B50C4B1B7889B047
:1054F00063B90B4B1B786BB905238DF80C30079BF8
:10550000009303AB0FCBFFF769FF03E004F05AF9F8
:105510000028EED009B05DF804FB00BF949800208D
:10552000889800201FB50023CDE90233074B019373
:1055300001F032FE30B906494FF47F2301A84B60D9
:1055400001F048FE05B05DF804FB00BFB5520F0046
:105550008C98002070B505460E460AB180F0010215
:10556000154B02F001021A7000F0B6FF044628B98C
:1055700035B100F08BFC0446FFF7DAFE204670BD23
:10558000BEB10E4B0E4A0F481D70294602F0FAF8C4
:105590004FF400444FF4FA7029464FF47A72002316
:1055A000E6FB040106F05CF92A460146064802F0D3
:1055B000FBF800F06FF9DEE794980020889800204F
:1055C000E9540F00BCBB0F00689800201FB5134BB7
:1055D0004FF0FF32C3F88020C3F880214FF44053CE
:1055E0000F4A596891420DD19C682046FFF75EFE34
:1055F00010B14FF000531C60204604B0BDE81040CD
:1056000000F09AB80023CDE902334FF4805406230A
:105610006846CDE90034FFF74BFEE9E700E100E022
:10562000DBE5B15107B501A800F062F8019B1A88CB
:10563000A52A07D09888A0F1AA035842584103B080
:105640005DF804FB0120FAE710B501F063F9A8B199
:105650000E4B0F4843F00103984701F0C5F808B11D
:1056600002F0B4F901F056F908B102F0AFF901F017
:1056700007F9044638B102F0A9F904E001F024F971
:1056800004460028E4D1204610BD00BFC0BB0F0077
:1056900000A8610000B589B003AB142200211846B0
:1056A000FEF740FE02228DF80C20002200920FC867
:1056B000FFF794FEFFF73CFE002009B05DF804FB05
:1056C00013B5044601A800F013F8019B1A88228044
:1056D0005A8862809A68A2609A88A280DA68E2603A
:1056E0001A6922615A6962619B69A36102B010BDA7
:1056F000014B0360704700BF00F00F00F0B5034698
:10570000186880F308885868FF2464B2EFF30585B1
:10571000002D01D1A64600472546064621273FBA5F
:10572000F0B40024002500260027F0B4F92040B290
:10573000004700BFF0BD00BFFFF7E0BF73B5002317
:105740000DF1020101A8ADF80230019302F0C6FD8F
:10575000F8B9019C25785DB3174B93F83020032AE4
:1057600028D00C2606FB00F29958E9B998189D50EC
:1057700093F830200132D2B283F83020BDF80230E5
:105780000E4A9B08013B043443608460084602F0E3
:1057900087F8019B33B128B1184602F0BBFD08B170
:1057A00002F014F902B070BD01300428DAD1F0E73C
:1057B0000720EEE70420ECE7B498002005580F001E
:1057C000084609B102F002B97047000010B50C227A
:1057D0000B4B504319181A5882B193F830208C683B
:1057E000013AD2B283F8302000221A50C1E90122D6
:1057F000201F02F08FFD08B102F0E8F8002010BD74
:10580000B4980020214B70B50122214E1A7096F8F1
:10581000303003B970BD1E4C0025236883B1013BB5
:10582000042B07D8DFE803F01C06120328002046EB
:1058300000F0E4FEE8B2FFF7C9FF08B102F0C6F8D5
:105840000135042D04F10C04E7D1E0E7A36863609F
:10585000204600F079FE0028ECD002F0B7F8E9E726
:10586000204600F059FF00F035FF08B102F0AEF815
:105870000520FFF7E3FADDE700F07AFF00F098FF7C
:10588000BDE870400620FFF7D9BA00BF8898002015
:10589000B498002008B50E4B002283F83020042174
:1058A0000139C3E901221A6003F10C03F8D1094858
:1058B00000F044FE02F0AAFC08B102F087F80648A6
:1058C00002F090FC08B102F081F8002008BD00BF92
:1058D000B4980020C1570F003D570F0008B50020B5
:1058E000FFF774FF0120FFF771FF0220FFF76EFF43
:1058F0000320FFF76BFFBDE8084002F0CFBC006853
:1059000070476CDF70476DDF70476EDF70476FDF89
:10591000704772DF704773DF704774DF704776DF60
:10592000704777DF70477ADF70477CDF70477FDF33
:10593000704786DF70478FDF704790DF7047AFDFBB
:105940007047B0DF7047B1DF7047B2DF7047B5DF37
:10595000704764DF704766DF70470C2813D8DFE8B4
:1059600000F014121212121209120712120D0B007B
:10597000022070470320704704207047042914BF99
:10598000062005207047062070470120704702F06E
:105990001DB810B5044608460321FFF7DEFF024696
:1059A000204601F077F918B1BDE8104002F00EB8BA
:1059B00010BD00000346032B10B50846144620D046
:1059C000042B23D169B1124B18884FF6FF7398420C
:1059D0001CD01321FFF7A3FFC0B1BDE8104001F0B8
:1059E000F5BF104602F096F808B101F0EFFF094B41
:1059F0001B689C420AD101220321074801F04AF9A1
:105A0000EAE70121FFF7A9FF0246F6E710BD00BF54
:105A100042840020A899002058990020F8B50A4D2A
:105A2000AB889E181D2E14460DDC2F68FE1802F15F
:105A3000010C07F803C07070B01C05F081FAAB8848
:105A400002331A19AA80F8BD08990020F0B54E4E0D
:105A5000317895B0002940F092804C4C0191102291
:105A60002046FEF75FFC4A4B0199236018220EA8DE
:105A7000FEF758FC01238DF8383028231093454B4E
:105A80001B78002B7DD0444B04AC03F11005186843
:105A90005968224603C20833AB421446F7D13F4C43
:105AA00010220DEB0201E01D05F03AFA002868D043
:105AB0003B4801210460FFF728FF08B101F086FF91
:105AC000384B08AA03F1100C174618685968154698
:105AD00003C5083363452A46F7D120680C90324845
:105AE000A288A379ADF834200760012200218DF847
:105AF0003630FFF70CFF08B101F068FF03238DF883
:105B00004C3004238DF80E3041F23053ADF8103094
:105B1000264B08AA9B798DF812300DF10F0104A8CD
:105B2000FFF717FF012210460DF10E01FFF776FF78
:105B30001F4805F05CFA1E49C2B20920FFF76EFF4C
:105B4000102208A90620FFF769FF104919480EAA7C
:105B5000FFF7DFFE08B101F039FF164C042221786F
:105B60000120FFF7DEFE08B101F030FF20780121AF
:105B7000FFF7D1FE08B101F029FF0123337015B002
:105B8000F0BD0623BEE700BF8C99002008990020D5
:105B9000E89800205499002007BC0F0018990020B5
:105BA000A49900201F99002088990020589900206E
:105BB000C6BB0F0040840020F0B504460146B1B0DA
:105BC000A84801F09BF82388262B3BD80F2B04D83C
:105BD000012B00F0CC8031B0F0BD103B162BFAD871
:105BE00001A252F823F000BF715C0F007F5C0F0030
:105BF000D75B0F00B15C0F00AB5D0F00D75B0F00F0
:105C0000D75B0F00D75B0F00D75B0F00D75B0F0090
:105C1000C75D0F00D75B0F00D75B0F00D75B0F008E
:105C2000D75B0F00D75B0F00D75B0F003D5E0F0007
:105C3000D75B0F002F5E0F00D75B0F00D75B0F0005
:105C4000315D0F00513B9AB2052AC4D8052BC2D84A
:105C500001A252F823F000BF7B5D0F00C75D0F006B
:105C6000D75B0F00D75B0F00535E0F00175D0F006F
:105C70007D4BA2881A807D4B00221A70ABE78023EF
:105C8000794CADF824307A4B208832221A6010A962
:105C9000012309AAFFF759FE08B101F097FE754BE1
:105CA0001B780BB9FFF7D2FE4FF6FF73238092E704
:105CB000714B03AC9A79186899888DF82220079067
:105CC000DA1DADF8201017332646106851682546B6
:105CD00003C508329A422C46F7D1684B09AA03F152
:105CE0001807154618685968144603C40833BB42A0
:105CF0002246F7D1186820605B48614A008810ABE3
:105D00008521CDE91456FFF712FE00283FF463AF5A
:105D100001F05CFE5FE7A379002B7FF45CAF524B90
:105D200013211888FFF7FBFD00283FF454AF79E0FA
:105D3000237A012B7FF44FAF4C4B00221A704C4B4F
:105D400019680139196069B910AB14221846FEF7B9
:105D5000E9FA05228DF84020149A00920FC8FFF747
:105D60003DFB38E731B0BDE8F040FFF76FBE3E4B7A
:105D700000211888FFF7EFFDD6E7A379002B3FF449
:105D80002AAFA27B043A022A3FF625AF022B18BFA6
:105D900001238DF840304FF4C173ADF84430324BDD
:105DA00010A91888FFF7CDFDAFE7334A258A508D3B
:105DB00002F118010023854218BF19460732A08856
:105DC000FFF7B7FDB0E7284B1C884FF6FF75AC42D4
:105DD00027D02C4B1B78F3B12B49012308222046F6
:105DE000FFF7B1FDF0B90246014602232046FFF756
:105DF000AAFDB8B92A460C212046FFF7A0FDA0F560
:105E00004053023B012B7FF6E6AE08283FF4E3AE99
:105E1000112889D1DFE61A4619462046FFF793FD7F
:105E200082E7082031B0BDE8F04001F0CFBD0E4B55
:105E3000002218881146FFF780FD75E700238DF8D2
:105E400040308DF84130084B10A91888FFF773FDDA
:105E5000C1E6E188044BF729188828BFF721FFF72E
:105E600076FD61E758990020428400208C9900203B
:105E7000448400209F990020189900203099002028
:105E80009A990020549900204C99002030B5474A37
:105E9000474800231370474A95B0137000F04EFB3B
:105EA00001F0F8FD0446002869D14348FEF79CFB49
:105EB000002867D1414B01221A70112340488DF808
:105EC000043005F094F83E4982B201A8FFF72DFD99
:105ED00008B101F07BFD0822002104A8FEF722FA98
:105EE0000823ADF810301823ADF812300023ADF8B8
:105EF000143004A84FF4C873ADF81630FFF713FD43
:105F000008B101F063FD00210C2201A8FEF70AFA96
:105F10000823ADF804302B4B02932B482B4B0393F3
:105F200001A900F035FD08B101F050FD284D4022D7
:105F3000002104A8FEF7F6F9284605F058F8059563
:105F4000244DADF81000284605F051F80795224D74
:105F5000ADF81800284605F04AF81123ADF83000D6
:105F600004A8ADF84C300D9500F0DCFF1B4B30223F
:105F70001A7007225A7010229A70FFF767FD2046A8
:105F800015B030BD04A8FFF7BEFC08B101F01EFD3E
:105F90009DF8113004A801338DF81130FFF7B1FCE2
:105FA00000288AD001F012FD87E700BF9F990020EA
:105FB000B5590F0099990020189900205499002094
:105FC000C6BB0F0031600F00589900208F590F0099
:105FD000CDBB0F00D5BB0F00E5BB0F009A99002089
:105FE00010B50F4B01221A700E4B18884FF6FF7335
:105FF000984207D01321FFF792FC08B101F0E6FCAC
:10600000002010BD084C2378002BF9D0074B1878DE
:10601000FFF783FC08B101F0D9FC00232370EFE700
:106020009F990020428400208C9900204084002009
:10603000F0B50B7889B005460C46092B35D8DFE85A
:1060400013F02D00360041000A0019002600070158
:1060500010014400150100F08BFB0421FFF77DFCCB
:106060000246284600F016FEF8B109B0BDE8F0403F
:1060700001F0ACBCFFF7B4FF08B101F0A7FC00F0E1
:1060800097FB90B109B0BDE8F04000F09FBBFFF76F
:10609000A7FF0028F6D001F099FCF3E7764B012228
:1060A0001A704B681A78754B1A7009B0F0BD724BB4
:1060B00002261E704B681B78012BF6D100F00AFBFC
:1060C0003146CBE76C4B0322EEE70520FEF7B6FE28
:1060D000694B1E78022E37D0032E59D0012EE4D101
:1060E00004AB102218460021FEF71CF9634A237AFC
:1060F00012788DF81020002203920C2B4FF003022F
:10610000CDE9012008D03146284600F0C3FD002823
:10611000CBD001F05BFCC8E763681846FFF7EFFBE4
:106120000590181DFFF7EBFB069003F10800FFF741
:10613000E6FB079001A800F007FA0028B5D0314629
:10614000FFF70BFC0246DFE7237A13F0030011D0C0
:10615000C0F104021A44D2B219464FF0000C0E46A8
:1061600001316768C9B2914207F806C0F7D11B1A1E
:10617000043323720123049363680693237A04A8EB
:106180009B08059300F0C8FA00288ED00221D7E7BB
:10619000207A830702D03246314662E7384E0190BA
:1061A000314601F08DFC014618B12846FFF7F1FB9E
:1061B0007BE76168019A306804F0C2FE019801F043
:1061C000E5FC01460028F0D101A9304601F0EEFCC3
:1061D00001460028E9D104230493019B9B08059301
:1061E00004A83368069300F009FA074640B9254A27
:1061F000237A11680B441360234B32681A6054E70A
:1062000009281BD11F4B217A1A68114419601F4BB2
:106210001B78002B3FF449AF1D4C2388013B9BB2F8
:106220002380002B7FF441AF284600F0F9FC08B131
:1062300001F0CCFB174B1B88238036E7306801F058
:1062400069FC014610B12846FFF7A3FB3946ACE7CD
:106250000E4B01221A700F4A8B8813800C4A138050
:1062600023E70A4A002313700A4AF8E7054B196826
:1062700000F09AFCF8E600BF99990020A099002050
:10628000AC99002090990020A899002098990020AE
:10629000969900209499002018DF7047012973B562
:1062A00014460D461A4608D0032912D014B32046CE
:1062B00002B0BDE8704001F089BB0F4B1B78052B85
:1062C000F4D10E4B1B68002BF0D0214604209847D8
:1062D000ECE7094E3378022BE8D1094B01925B6859
:1062E0009847064B35701B68002BDFD0019A21467A
:1062F0002846ECE702B070BDB8990020B0990020A4
:10630000BC99002030B589B003AC1422002120468E
:10631000FEF708F8094B1B88ADF80E30084BDB6818
:1063200006930025079B8DF80C50009394E80F000E
:10633000FFF754F8284609B030BD00BFC8990020C7
:10634000149A002000B589B003238DF80C300A4B55
:106350001B88ADF80E30094B5A6804929A68DB68C6
:106360000693079B0093059203AB0FCBFFF736F81C
:10637000002009B05DF804FBC8990020149A0020A1
:1063800000B589B001238DF80C300F4B0F4A1B88E4
:10639000ADF80E304FF440535968914208BF9A68E7
:1063A0000B4B5968049118BF4FF480529968DB6811
:1063B00006930591009203AB0FCBFFF70FF8002077
:1063C00009B05DF804FB00BFC8990020DBE5B151BE
:1063D000149A002000B589B003AB1422002118469E
:1063E000FDF7A0FF04228DF80C20002200920FC8B8
:1063F000FEF7F4FF09B05DF804FB00001A4BF7B597
:106400001A4C1C601A4B02221A70FEF739F9194B0C
:1064100048B11968204600F0FFFEB8B103B0BDE8EE
:10642000F04001F0D3BA1B681D0BC3F30B0303B19B
:106430000135114F00244FF44056AC4208D10023DF
:106440000A4800931A460321FFF728FF03B0F0BD66
:106450007368BB420CBFB0684FF4805000EB04304F
:10646000FEF7CAFD0134E8E72C9A0020249A0020A8
:10647000B8990020CC990020DBE5B15170B50C46ED
:1064800086B00321CDE902100546960802A80193C3
:1064900004940596FFF700FFE0B1B4F5805F019B1F
:1064A00011D8012302A8CDE90235CDE90446FFF752
:1064B000F3FE78B9032302A8CDE90235CDE90446FD
:1064C000FFF7EAFE06E01A46E11AE81AFFF7D6FFE0
:1064D0000028E6D006B070BD1FB5114B0193114BDB
:1064E000114900241C70114B01A81C80CDE9024405
:1064F00000F070FE0E4B10B11C7004B010BD4FF4D4
:1065000040520C4954688C4207490CBF92684FF4C2
:1065100080524A60084A0021116001221A70ECE79B
:106520009D620F00109A0020249A0020C899002034
:10653000B8990020DBE5B151B4990020014B1860F7
:10654000704700BFB099002038B54368214C0FCB8D
:1065500084E80F002278500701D5910733D1606895
:10656000830730D1A3689D072DD1E16811F00304A2
:1065700029D1184408441849B3F5204F086024D89D
:106580004FF4405315495D688D420ABF9B684FF434
:106590006C23C3F56D23984217D8114B114919602C
:1065A00011495960D10709D5104A9A60104B1B78E0
:1065B000012B0CD1FFF722FF204638BD92074CBFBC
:1065C0000C4A0D4AF1E70624F6E70C24F4E7082408
:1065D000F2E700BF149A0020CC990020DBE5B1510E
:1065E000BC990020FD630F00D5630F0081630F008D
:1065F000B899002045630F0005630F002DE9F043B3
:1066000085B0002853D0816811F0030451D12C4B80
:106610001B78052B4FD12B4E42683368DFF8AC90C6
:1066200003EB82039500D9F80020934207D94FF07D
:10663000FF3333600C24204605B0BDE8F08303919E
:10664000FEF71EF8DFF88880039940B13368D8F868
:1066500000002A4600F0D0FDD8B10446EBE74FF425
:106660004053194A58683768904208BF98680391A8
:1066700018BF4FF4805000232A463844FEF738FAFA
:106680000399D8F8000000950B4600220121FFF77E
:1066900005FE33681D44D9F8003035609D420CD1A9
:1066A000FDF7EEFF0028C6D1FEF704FAC3E70E247B
:1066B000C1E71024BFE70824BDE70924BBE700BFFA
:1066C000B8990020B4990020DBE5B151CC990020A5
:1066D0002C9A002070B50B4B1D6885B90A4E337893
:1066E000042B0CD1094C0A4B21781A780948FEF783
:1066F00027FA10B90523337070BD2570FCE7082018
:10670000FAE700BFB4990020B8990020109A002041
:10671000149A0020D0990020F8B5114B1A78032A5A
:1067200003D0042A03D0082416E004221A700D4B6B
:106730001C68002CF7D10C4D43682F789E0007EBA6
:106740008303402B0AD8816808483246384404F055
:10675000F7FB2B7833442B702046F8BD0924FBE768
:10676000B8990020B4990020109A0020D0990020F8
:1067700010B50B4C2378052B10D10A4B0A4A1B6825
:10678000116899420AD106232370084B1B68586888
:10679000FEF710FA08B90723237010BD0820FCE7A4
:1067A000B8990020CC990020B49900202C9A0020A0
:1067B000044B1B78072B02D1034B9B68184708201A
:1067C000704700BFB8990020BC99002000B589B07F
:1067D00006238DF80C30079B009303AB0FCBFEF71D
:1067E000FDFD09B05DF804FBF0B58DB005A8FEF71E
:1067F00067FF089C002C3ED00B9E04F58053B342EB
:106800002DD91E4BA6F5805503EA55054FF440538C
:106810009B689C420BD869002B46A4EB450201F50E
:10682000805106EB4500FFF729FE0DB0F0BD05F5E0
:106830008053012701A8CDE90173CDE90337FFF7A4
:106840002BFD0028F1D14FF4805301A8CDE902338C
:1068500001970497FFF720FD0028E6D1DBE701232D
:10686000CDE90136A4084FF4805301A803930494A2
:10687000FFF712FDD9E72046D7E700BF00F0FFFF82
:1068800000B58DB005A8FEF71BFF099880B1089BE5
:106890008BB94FF440530B4A596891420ED19B6813
:1068A00080080022039001A8CDE90123FFF7F4FC42
:1068B0000DB05DF804FB0B9A1344F1E74FF48053DD
:1068C000EEE700BFDBE5B15100B58DB005A8FEF7DE
:1068D000F7FE099898B1089BA3B94FF440530C4AAE
:1068E0005968914211D19B680393800803214FF4AA
:1068F0007422049001A8CDE90112FFF7CDFC0DB080
:106900005DF804FB0B9A1344EEE74FF48053EBE77A
:10691000DBE5B15110B58CB005A8FEF7D1FE0898A3
:10692000B8B10B9C00F58053A34214D94FF44053E7
:106930009B6898421BD80F4BA4F5805203EA520380
:106940005900A0EB430201F5805104EB4300FFF72F
:1069500095FD0CB010BD800803224FF480530490C5
:1069600001A8CDE901230394FFF796FCF1E70E207F
:10697000EFE700BF00F0FFFFA8DF7047AADF704716
:10698000ADDF7047AEDF7047B0DF704762DF704742
:106990002DE9F0470E4694B00546002800F0FE8031
:1069A000002900F0FB804B68002B00F0F7804FF6C9
:1069B000FF7303807A4B04AA03F1100C1746186882
:1069C0005968144603C4083363452246F7D141F29F
:1069D00030530DF10A013846ADF80830FFF7D6FF05
:1069E0000446002840F0D6802A1D02A90120FFF7A6
:1069F000C3FF0446002840F0CD809DF80A30AB71FB
:106A000001461C220DA8FDF78DFC9DF834300E9434
:106A100043F004038DF8343001AFAB798DF80E30BC
:106A2000214641F2325303223846CDE91044CDE9E4
:106A30001244ADF80C30FDF775FC9DF806308DF86A
:106A4000044023F01F0343F00303214614224FF0B8
:106A5000110A08A88DF806308DF805A00DF10C0874
:106A6000FDF760FC4FF01409A8880A9405F10803AB
:106A700008AA0DA90C94CDE90887ADF82C90FFF772
:106A80007DFF0446002840F0858001461C220DA8A9
:106A9000FDF748FC9DF834300E9423F0180343F0C2
:106AA00018038DF83430AB798DF80E30214641F261
:106AB000315303223846CDE91044CDE91244ADF8F4
:106AC0000C30FDF72FFC9DF806308DF8044023F0C4
:106AD0001F0343F0130321464A4608A88DF80630E9
:106AE0008DF805A0FDF71EFC1723ADF82C30A88803
:106AF0000A9405F1100308AA0DA90C94CDE90887A2
:106B0000FFF73CFF0446002844D101461C220DA893
:106B1000FDF708FC9DF834300E9443F002038DF825
:106B20003430AB798DF80E30214641F234530322D4
:106B30003846CDE91044CDE91244ADF80C30FDF7EC
:106B4000F1FB9DF806308DF8054023F01F0343F05C
:106B5000030321464A4608A88DF806308DF804A0A4
:106B6000FDF7E0FB02230A93ADF82C30A8880C96C1
:106B700005F1200308AA0DA9CDE90887FFF7FEFE5D
:106B8000044638B97368AB62B36803B1EB62054B76
:106B900001221A70204614B0BDE8F0870E24F9E7F0
:106BA00017BC0F00309A002070B5054686B070B350
:106BB00002884FF6FF739A422BD0174B1B7843B3D2
:106BC000164C1022080AE170207121FA02F0090E19
:106BD000072301266071A17102A800216370ADF83E
:106BE00006302270A670FDF79DFB2B8AADF80830A9
:106BF0000023ADF80C3028888DF80A600DF10603EB
:106C000002A9CDE90434FFF7BDFE06B070BD0E2029
:106C1000FBE70820F9E700BF309A0020319A0020F6
:106C200030B5044687B060B302884FF6FF739A42CE
:106C300029D0164B1B7833B3154D11232B700B0A3B
:106C40006970AB700B0C090EEB70297105230021E4
:106C5000102202A8ADF80630FDF764FB238AADF8D8
:106C6000083001238DF80A300023ADF80C3020885D
:106C70000DF1060302A9CDE90435FFF783FE07B045
:106C800030BD0E20FBE70820F9E700BF309A002056
:106C9000319A002030B5044687B038B300884FF6EB
:106CA000FF73984224D0134B1B780BB3124D102363
:106CB00069700321ADF80610AA7000211A4602A8D7
:106CC0002B70FDF72FFB238AADF8083001238DF8D8
:106CD0000A300023ADF80C3020880DF1060302A91C
:106CE000CDE90435FFF74EFE07B030BD0E20FBE7BF
:106CF0000820F9E7309A0020319A002070B50D463F
:106D000088B0044650B149B1826A3AB10B88502B21
:106D100049D005D8102B43D0112B54D008B070BDEA
:106D2000512BFBD18E79022EF8D10A89038A9A421F
:106D3000F4D18B7B043B022BF0D99DF816308DF8F3
:106D4000106043F001038DF816300B8AADF818304F
:106D50004B8AADF81A30082201F1140301A8002172
:106D60000793FDF7DFFAA18A2088019601AACDF8E2
:106D700008D0FFF705FE48B3E36A03B1984740F235
:106D8000FD132088ADF8143004A9FFF7FDFD00289D
:106D9000C4D0E36A002BC1D008B0BDE870401847EA
:106DA0008B882380BAE7C98803899942B6D1082322
:106DB0008DF81030123535F8023C8DF818300595F5
:106DC00004A99047AAE74FF6FF73EAE7BDF8003041
:106DD0002088DB07D3D5002604A9ADF81460FFF79F
:106DE000D3FD0028D5D1297D4B1E072B3ED8DFE8E7
:106DF00003F004192226282A3B2C6B8A8DF80460A4
:106E0000012B05D8062201212046FFF743FFBEE7EC
:106E1000012315358DF80C300295A36A01A920468F
:106E200098477BE76A8A01239A428DF80430F0D8AC
:106E300006220221E8E702238DF80430EDE7032360
:106E4000FAE70423F8E70523F6E76B8A022B02D85A
:106E500003220821D8E7B5F81530ADF80830002B2B
:106E60000CBF07230623E7E70923E5E70322CBE767
:106E7000A8DF7047AADF70472DE9F04180468EB049
:106E800015461F460E4611B9084600F09FFD15B97C
:106E9000284600F09BFD1C220DEB02000021FDF7AF
:106EA00041FA9DF81C30ADF80480002443F0020341
:106EB0008DF81C3021460123032268468DF80630E8
:106EC000CDE90A44CDE90C440894FDF72BFA3B7850
:106ED0008DF800307B788DF801309DF8023023F07A
:106EE0001F0343F002032146142202A88DF802304A
:106EF000FDF718FA0A48CDF80CD001AB029302AAAC
:106F0000149B0088ADF8105007A9ADF81240ADF8F9
:106F100014500696FFF7AEFF0EB0BDE8F08100BF3B
:106F2000589A002030B587B041F60A032B4AADF8D5
:106F30000C30044603A901208DF80E00FFF798FFDE
:106F40000546D8B92288E2B922894AB1244B009378
:106F5000E16804F13C0342F62420FFF78DFFD8B925
:106F6000228C4AB11F4B0093616A04F13C0342F644
:106F70002620FFF781FF78B9A36B7BB9284607B0BD
:106F800030BD194B0093616804F13C0342F629209F
:106F9000FFF772FF0028D7D00546EFE71A788DF883
:106FA00010205A888DF81120120A8DF812209A8824
:106FB000DB888DF815301B0A8DF813208DF81630FC
:106FC000120A0A4B8DF814200093072204F13C03A7
:106FD00004A942F65020FFF74FFFDDE7589A002042
:106FE000489A0020389A0020409A0020509A0020A9
:106FF00029DF704728DF7047064B182202FB00305C
:1070000000230422C0E90423037183608361C36009
:10701000704700BF6C9A002023B502460846C96835
:1070200043680093044B53F82150436910F80C1B3C
:10703000A84702B020BD00BF5C9A002038B5194CAB
:107040002378182202FB03431A795869012A03D0D6
:10705000032A1AD00F2038BD134A996915689A6817
:10706000DB68A2EB0532B2F5805F184401EB053115
:1070700000EB053034BF92084FF48062FFF7B8FF91
:107080000028E8D10123A370E5E74FF080531B6986
:107090009BB2B0FBF3F0044B1B681844FFF7AAFF48
:1070A000EEE700BF6C9A0020649B002070B5134D82
:1070B0006C780A2C1FD02E783444E4B2092C84BF9B
:1070C0000A3CE4B2182606FB0454A261207103C9ED
:1070D000A360049BE360AB7804F1100282E8030034
:1070E00023B100206B7801336B7070BDFFF7A6FFF2
:1070F0001128F7D1F5E70420F7E700BF6C9A0020CC
:1071000070B5234CA3782BB100260228A67002D0BC
:10711000032833D070BD25781E4A182101FB054194
:10712000136889680133B1EB033F136014D86378A7
:107130001660013B63706B1CDBB21821092B01FB4D
:10714000054188BFA5F10903002004312370FFF732
:1071500063FF2846FFF750FF6378002BDAD0A3784F
:10716000002BD7D1FFF76AFF0028D3D01128D1D048
:107170002178182303FB0141043105E0217818230D
:1071800003FB014104310D20BDE87040FFF744BF0F
:107190006C9A0020649B002008B50A4B00211960FE
:1071A000094B1980997008460131FFF725FF0A291C
:1071B000F9D1064B00201860054BC3E90000C3E974
:1071C000020008BD649B00206C9A0020609B002098
:1071D0005C9A0020064A03461068042807D008601D
:1071E000411C11601A68034B43F8202000207047AF
:1071F000609B00205C9A002013B5CC180C43A407B8
:1072000008D1009313460A4601460120FFF74EFFBE
:1072100002B010BD1020FBE707B500220B4600921C
:1072200001460320FFF742FF03B05DF804FB0000B6
:10723000094B5A7899780132D2B2914208BF0022A4
:10724000197891421FBF02705878182202FB003053
:1072500014BF043000207047689B0020082910B537
:10726000044602D0002000F0B1FBD4E90030BDE8B4
:107270001040184773B5054600240DF107000E466F
:107280008DF8074000F0B0FB0DF10600FFF7D0FFCE
:1072900090B10670094B9DF8062045605A709DF824
:1072A000070000F0C5FB24B9054B4FF48012C3F86A
:1072B0000021204602B070BD0424F0E7689B002046
:1072C00000E100E0204B21491A682F2300BF00BFD6
:1072D00000BF00BF00BF00BF00BF00BF8A422FD069
:1072E00000BF00BF00BF00BF00BF00BF00BF00BFA6
:1072F00000BF00BF00BF00BF00BF00BF00BF00BF96
:1073000000BF00BF00BF00BF00BF00BF00BF00BF85
:1073100000BF00BF00BF00BF00BF00BF00BF00BF75
:1073200000BF00BF00BF00BF00BF00BF00BF00BF65
:1073300000BF00BF00BF00BF00BF00BF00BF00BF55
:10734000013BC3D1704700BF3C8400200024F400FF
:107350000C4B0D484FF4003210B5C3F880200124C7
:107360004FF48033C0F84833C0F808334460FFF767
:10737000A9FF064B846000201860FFF7A3FF044BB1
:10738000187010BD00E100E000100140849C002056
:10739000759C00202DE9F3412549264B0025C1F8B5
:1073A0004051C1F84451C1F84851C1F84C51C1F89D
:1073B0000051C1F804511B68002B34D0D1F80445AA
:1073C0001D49DFF888800968641A24F07F442F463D
:1073D0001968A14212D81A7CDE69641A0D4462B1A0
:1073E0005A691F7400929B690193424608216846BE
:1073F00000F056FA08B100F0E9FABEB90F4A104B96
:1074000011781B788B4205D10133DBB2022B08BF08
:107410000023137012780B4B43F822500A4B4FF4A1
:107420008012C3F8002102B0BDE8F0813346CFE7F7
:1074300000100140889C0020849C0020819C00203A
:10744000809C0020789C002000E100E05D720F002D
:107450002DE9F74FA84AA94913780978A84C994211
:107460003BD00133DBB2022B08BF00231370A549C8
:107470001278A54B0F6853F822003B1823F07F4386
:1074800000220B60236815461646944613B942B194
:10749000236006E0196881420DD902B12360091A00
:1074A000196001262368DFF8689200930027BDB9B0
:1074B000DFF868A268E0401A0E44D968D3F81CE0EF
:1074C000C3F800C031B1BA1922F07F42C3E90121EB
:1074D000DD611D4673460122D8E700252E46E1E70F
:1074E0002846ED69874BD0F804C01B68DFF830E20E
:1074F0008168ACEB030222F07F42724500F2AD805E
:107500000A4402600122027422680023C0E90133A8
:10751000C361002A40F0AB802060C8E75A1C9AF88B
:107520000210D4F800B0D2B291428AF8002004BF11
:1075300000228AF80020182202FB03A31A79986817
:10754000022A77D0032A00F08580012A1CD190F806
:1075500010C0BCF1000F17D1D96841601A69826070
:107560005A69C2609B698361684B1B78002B18BF06
:1075700061464160B6E7904200F09E809046D26935
:10758000002AF8D1002303749AF800309AF80120F9
:107590009A42C3D1236827B9009A9A4201D1002E9A
:1075A00042D0002B00F08580D3F80090584C554B0A
:1075B000D4F804651868574F351A3B7825F07F4595
:1075C00003359BB94FF48033C4F84433C4F8043313
:1075D000514B4FF400324FF00108C3F880211A607C
:1075E000C4F80080FFF76EFE87F80080A9452CBF25
:1075F0004844401920F07F40C4F84005D4F80435D1
:107600009B1B23F07F43801B033320F07F4083428A
:107610000AD9D4F80435C4F84035FFF753FE3E4B81
:107620004FF40032C3F80021384B00221A7003B027
:10763000BDE8F08F5A46D846A2E78BF81020DBF859
:107640001CB00123BBF1000FF7D1002B9CD0C4F874
:1076500000B099E700231A46F4E7A3EB0C0323F0EC
:107660007F438B4234BFCB1A002303604AE7016893
:10767000136899421BD85B1A1360C2614CE7A1EBF7
:107680000C01D3F81CC01A46BCF1000F0AD06346A7
:10769000D3F800C08C45F2D3ACEB010CC3F800C0AA
:1076A0009C4613460160C0F81CC0D861FFE6134633
:1076B000EEE7FFF74DFEB7E7404510D1DBF81C3091
:1076C000236063B9DFF83CE001920121C9F808109A
:1076D000CEF800300D4B1970FFF7F4FD019A1368D6
:1076E000D269C8F81C2012B111680B4413602368DA
:1076F0005B4518BF012745E7809C0020819C002046
:10770000889C0020849C0020789C0020749C002091
:1077100000100140759C002000E100E0689B002003
:10772000FEFF7F0008B5FFF713FE104B00200B2271
:1077300018809A700E4B18600E4B18700E4B187014
:107740000E4B4FF48012E021C3F8802183F814130C
:107750001A6002F18042A2F56F22C2F8080583F890
:107760001113074BD2F804251A6008BD689B00204E
:10777000889C0020809C0020819C002000E100E08B
:10778000849C0020074B9B784BB132B128B1036831
:10779000187C20B959745A61704707207047082037
:1077A000704700BF689B00202DE9F743DFF8848015
:1077B00098F8023005460E461746ABB3A0B304292D
:1077C00030D9436983B3437C0024012B0DF10700BA
:1077D0000CBF8946A1468DF8074000F005F90DF170
:1077E0000600FFF725FDD8B1012303700F4B45605C
:1077F000D3F80435C0E90497C0E902369DF8063095
:1078000088F801309DF8070000F012F924B9084B00
:107810004FF48012C3F80021204603B0BDE8F08386
:107820000424EFE70724F7E70824F5E700100140F8
:1078300000E100E0689B0020064A92783AB130B13E
:10784000426922B1002202740221FFF713BD082011
:10785000704700BF689B00204B1C30B5DB0004461E
:1078600012F003009BB20DD1074D2A601A44074B5A
:107870001A60074B1870074B1870074B1C80074B9A
:10788000198030BD0720FCE7949C0020909C0020CC
:107890008C9C00209C9C0020989C00209A9C00209E
:1078A0002DE9F347DFF8C080B8F800308B42064678
:1078B0000D4617464CD300240DF107008DF8074004
:1078C00000F092F8244B254A25481B78008892F84E
:1078D00000C084455FFA8CF138BF4C1CDBB238BF66
:1078E000E4B2A3422ED014781178CBB2884286BF7E
:1078F0000133DBB2002313709DF8070000F098F805
:107900004FF6FF739C4225D0DFF86090D9F8002035
:107910004FEAC40A42F8347002EBC403AEB1A5B119
:10792000104BB8F800001B682A4604FB00303146B3
:1079300003F006FBD9F80030534400209D8002B0CC
:10794000BDE8F0874FF6FF74D6E700209880F6E791
:107950000920F4E70420F2E79C9C00208C9C002086
:107960009A9C0020909C0020989C0020949C0020D1
:1079700070B5104C104D22782B789A4200D170BD12
:107980000E480F4A2378126806880E4802EBC3019E
:10799000006852F83320898803FB060090470A49A3
:1079A00022780988D3B2914286BF0133DBB200232B
:1079B0002370E0E79C9C00208C9C0020989C002079
:1079C000949C0020909C00209A9C00201FB50021D0
:1079D000CDE9021001AA44F20100ADF80410FCF751
:1079E00045FE05B05DF804FB70B5EFF3108672B686
:1079F0000C4A946801239CB993600B4B0B4DD3F850
:107A0000801029401160C3F88050D3F88410516071
:107A10004FF0FF32C3F88420047006B962B670BD1F
:107A20000370FAE7A09C002000E100E0FC06FFBD27
:107A300010B5084B9A685AB150B9EFF3108172B67D
:107A4000054A1C6814605C685460986001B962B6AD
:107A500010BD00BFA09C002000E100E003462AB159
:107A600010881A4619448A4203D170474FF6FF70B6
:107A7000F7E712F8013B40BA80B25840C0F3031355
:107A8000584080EA0033580100F4FF509BB2584040
:107A9000E9E70000064B074A00201870064B1A6001
:107AA0000822C3E90120C3E90300C3E905007047C8
:107AB000AC9C0020B09C002090AF002000207047BC
:107AC00030B5F9B1124B5C6800220A60E4B1B0F540
:107AD000167F1BD8D868013C01305C60D8601C68F8
:107AE00018694FF4177505FB00440C60012101FA79
:107AF00000F49969013000F0070021431861996191
:107B0000104630BD0E20FCE70420FAE70C20F8E711
:107B100090AF0020F0B51C498A689AB34D690E6891
:107B2000AC1A04F0070423464FF4177707FB036CE5
:107B3000604511D1012000FA03F588696840886129
:107B400000204E68D1F818C04FF0010E7344002594
:107B5000164403F007030AE0013303F007039D42D4
:107B6000E4D11020EDE74AB1013A1C4601250EFA96
:107B700004F414EA0C0FA6EB0207F4D00DB1C1E92E
:107B80000172F0BD0420FCE790AF0020064A1369A3
:107B90001268013B4FF4177103F0070301FB032345
:107BA000C3F858020020704790AF002030B5C0B134
:107BB000B9B10E4BDA68B2B1013ADA609A681C6862
:107BC00001329A605A694FF4177505FB024404604C
:107BD0000132D4F85802086002F007025A6100200E
:107BE00030BD0E20FCE70420FAE700BF90AF002074
:107BF0003FB40C49086890B10B4B1C687CB10B4A30
:107C00001568CDE9025000238DF804300B60136035
:107C100004AB13E90700234604B030BC184704B096
:107C200030BC7047B4AF0020B8AF0020C4AF002014
:107C3000DC2810B509D0DD2810D0C02816D1FFF7F8
:107C4000D7FF0E4B0E4A1A6010BD0E4A0E4B196834
:107C50001368581C1060C022CA54F2E7094A0A4B44
:107C600019681368581C1060DB22F5E7064B054ABB
:107C7000196813685C1CC8541460E2E7488400204B
:107C8000A17C0F00B4AF0020C4AF0020C02802BF09
:107C9000014B024A1A60704748840020A17C0F0003
:107CA000C02810B409D0DB280BD0094B094A196849
:107CB00013685C1CC854146006E05DF8044BFFF7C1
:107CC00097BF054B054A1A605DF8044B704700BF2B
:107CD000C4AF0020B4AF002048840020317C0F00E6
:107CE00007B501228DF807000DF10701002002F011
:107CF000AFFB00280CBF0420002003B05DF804FB9C
:107D000010B5064A064C12682368D05CFFF7E8FFFE
:107D100010B923680133236010BD00BFC8AF002035
:107D2000BCAF002008B5C020FFF7DAFF28B9034B2D
:107D30001B6813B9024B034A1A6008BDBCAF002090
:107D40004C840020017D0F0008B5DB20FFF7C8FF41
:107D500010B9024B024A1A6008BD00BF4C840020D3
:107D6000657D0F0010B50C4A0C4C12682368D35C7B
:107D7000C02B03D0DB2B0DD0042010BDDC20FFF77F
:107D8000AFFF0028F9D12368054A01332360054B72
:107D90001A60F2E7DD20F2E7C8AF0020BCAF002098
:107DA000017D0F004C8400207FB5184C184D194EF2
:107DB000002002F0F3FA30B322689AB129683368E0
:107DC00099420FD2012201A9002002F0F3FA10B962
:107DD0004FF0FF3001E09DF804000F4BC0B21B686C
:107DE0009847E5E70D4B1B686BB10292084A0221E8
:107DF000126803928DF8041004AA12E9070004B077
:107E0000BDE87040184704B070BD00BFC4AF00208B
:107E1000B4AF0020B0AF002048840020B8AF0020ED
:107E2000014B186000207047B8AF0020034B1A7850
:107E30000AB901221A700020704700BFACAF0020C1
:107E4000014B002018707047ACAF00202DE9F04FB7
:107E500085B0002851D02A4F3B78012B07D0022B48
:107E600014BF08240424204605B0BDE8F08F254D3A
:107E7000DFF8A090244E254CDFF89C80DFF89CA012
:107E8000DFF89CB0C9F8001000232B60022330609B
:107E90003B70C4F800802A68D9F800309A4215D3A4
:107EA000C4F80080FFF73EFF044608BB184B1B6870
:107EB00001223A70E3B18DF80420326802922A68F8
:107EC000039204AA12E907009847CCE733682A68AE
:107ED0009A5CC02A03D02A689B5CDB2B04D1236800
:107EE000534508BFC4F800B023689847042801D15F
:107EF0000024B8E71128CED1FAE71024B3E700BF79
:107F0000ACAF0020BCAF0020C8AF00204C840020E4
:107F1000B8AF0020C0AF0020257D0F00017D0F000D
:107F2000497D0F00054B064A1860064B1960064B49
:107F300000201860054B1A60704700BFC4AF0020D6
:107F40008D7C0F00B0AF0020B4AF0020488400202B
:107F5000064B07481B68DB00DBB2002203705B4264
:107F600042708270C3700421FFF770BFF4AF00202D
:107F7000CCAF002070B52B4C2B4D02462378012B43
:107F800014D0022B21D0002B4BD1002A49D12748F5
:107F9000FFF752FC08B1FFF719FD254B1B68002BBA
:107FA0003FD0244ABDE8704010781847012A38D1E4
:107FB0002968214B06311868FFF748FF08B1FFF721
:107FC00005FD022323700022D8E7022A16D0032AD7
:107FD0000CD032BB194B15481A6041F67F21FFF7D0
:107FE000E3FBF0B1BDE87040FFF7F0BC144A136842
:107FF000013303F0070313600023E3E70F4A13681C
:10800000052B0AD001331360074B19680A4BBDE8F2
:10801000704018680631FFF719BF064B01221A702D
:10802000EAE770BD18B000200CB00020D0AF0020EF
:1080300008B0002010B0002020B0002014B00020B4
:10804000F8AF0020F0B585B004AB03E907009DF858
:108050000400032874D8DFE800F00802A3A601207A
:1080600005B0BDE8F040FFF785BF039E544C032EDA
:1080700040F28280029D6B7813F00F0265D00E2AC9
:108080007AD1042E55D02A78500652D5110650D5F3
:108090001A44AB781A44EB781A4412F0FF0248D124
:1080A000B71E39462846FFF7D9FCEB5B834240D127
:1080B00044492A780B6802F00702D8B282422BD1D9
:1080C000013303F007030B60FFF742FF3E4B012231
:1080D00030461A70FFF75AFD08B1FFF777FC3849B0
:1080E0004FF41670FFF7ECFC002862D0042802D091
:1080F0000020FFF76BFC35480521FFF713FF08B19F
:10810000FFF764FC324B1B68002B56D04FF0000089
:1081100005B0BDE8F040184720684FF41671FFF72E
:1081200001FF08B1FFF752FC05B0BDE8F040FFF7D2
:108130000FBF20684FF41671FFF7F4FE00283CD003
:1081400005B0BDE8F040FFF741BC2978AA780B44A0
:108150001344EA78134413F0FF030DD11D4A12684B
:108160000132C1F3C20102F00702914204D11A4A5E
:1081700003201370FFF7FEFE25681DB14FF4167142
:108180002846D9E70E494FF41670FFF799FC60B105
:10819000042802D02846FFF719FC0C480521CBE73C
:1081A0000A480521C8E70320CAE720684FF4167182
:1081B000C2E720684FF416719FE705B0F0BD00BF1D
:1081C0001CB00020F4AF0020F0AF0020FCAF002076
:1081D00004B00020F8AF002010B000200220FFF70C
:1081E000C9BE0000074B10B5044618600648FFF7EB
:1081F00017FE08B1FFF7EAFB002C0CBF0E20002091
:1082000010BD00BF04B0002045800F00184A194877
:10821000002310B51360184A1360184A1360184AF7
:108220001370184A1370184B184A01211960184B23
:108230001960184B1970FFF7A5FA08B1032010BD9B
:10824000FFF728FC0028FAD1FFF7F0FD0028F6D14F
:10825000114C4FF416702146FFF732FC0028EDD187
:1082600020684FF41671BDE81040FFF75BBE00BFF9
:1082700020B0002028BC0F000CB0002014B000205B
:10828000F0AF002018B00020F4AF0020DD810F0017
:10829000F8AF002010B000201CB000200C4A08B538
:1082A000002313600B4A1360FFF708FC08B1FFF7C7
:1082B0008DFBFFF7C5FD08B1FFF788FB0648FFF708
:1082C000BBFA042802D10020FFF780FB002008BD84
:1082D00008B0002004B00020D0AF002037B50D4614
:1082E000044698B191B10A4B19780022019259B114
:1082F00001A91A70FFF75AFC019B063B2B802368EB
:108300000433236003B030BD0420FBE70E20F9E7FF
:10831000F0AF00200438FFF7FDBB000000487047B5
:1083200050840020044B054A1878054B002814BFE0
:1083300010461846704700BF24B00020AEBC0F00A6
:108340004CBC0F00074B187020B1074B16229A72D5
:108350000522DA724FF0805304495A6E04481B6EAE
:1083600002F016BE24B00020508400202CBC0F0068
:10837000A8B0002010B570B9134B14481968022238
:1083800002F0DEFD01230133DBB211485B0043F450
:108390004073038010BD052814D80B4B53F82040C0
:1083A000204602F024FEC3B21F2B28BF1F23084A19
:1083B0002046E118884202F10202E4D010F8014B95
:1083C0001480F7E70020E5E76484002028B000204F
:1083D00026B000204DDF70474EDF70474FDF7047FB
:1083E00050DF704712DF7047002000F07BBD0000B7
:1083F0001FB5244B402283F8272300238DF8073034
:108400004FF4405304465A681F4B9A4227D10DF14E
:108410000700FFF7E7FF9DF8073003B30120FFF7E0
:10842000DBFF0120FFF7D6FF0120FFF7D7FF02A8EF
:10843000FFF7D6FF029BDA0702D5002000F0B6FE58
:10844000029B9B0702D5022000F0B0FE2046FFF7FA
:1084500079FF00F007F902F02BFD04B010BD0023F6
:1084600001A88DF80430FCF735FD084B039303A8F1
:10847000FCF758FDFCF75CFD4FF08043D3F838342F
:108480000293D7E700E100E0DBE5B151AD910F00C9
:10849000012000F08BBE0120FCF7D0BC0220FCF7CD
:1084A000CDBC18DF70470000F0B51D46154B87B0F6
:1084B00018680F4659681B7A03AC03C42370124B2B
:1084C00018685968114B009301AC03C42046164646
:1084D00002F08DFD21460246384602F031FD01A82A
:1084E00002F085FD01A90246304602F029FD6846EA
:1084F00002F07DFD69460246284602F021FD07B0E4
:10850000F0BD00BFF9BC0F0042BC0F00312E30009F
:108510000120704710B51C460B781E2B0AD0002393
:108520002022052102F0BCF94FF6FF70A04228BFBF
:10853000204610BD0020F9E7F8B5069F14460D4609
:108540003A46002118461E46FBF7ECFE7CB14FF080
:10855000E023D3F8F03DDB0700D500BE4FF0FF303D
:108560000AE0284600F0D4F8013504F50074BC4256
:1085700006EB0401F5D32046F8BD0000F8B50A4F1C
:108580000D461E460024069B9C4206EB040101D3C7
:108590002046F8BD3A46284600F092F90028F7D068
:1085A000013504F50074EEE7BCB0002030B5264D6F
:1085B0002A7A8DB09AB107AC1422002120460625F4
:1085C000FBF7B0FE8DF81C500B9B009394E80F0056
:1085D000FCF704FF0620FCF731FC0DB030BD2B6822
:1085E000002BFAD0194B197819B105201A70FCF735
:1085F00025FCD5E900329A42EFD307AC14220021C2
:108600002046FBF78FFE6B7ADBB106234FF4204246
:108610004FF474214FF423208DF81C3002F080FCBD
:108620000028D1D01022002103A8FBF77BFE4FF4D5
:1086300023224FF4205303A8CDE90423FFF731FF91
:10864000C2E78DF81C30BFE7BCB000207C8400205E
:10865000024B0B604FF40073138070470901010057
:1086600001207047F7B51C491C481C4E02F0B0FCB5
:108670004FF440531A4A5968914227D11A78102A68
:1086800021D9142A1D691FD95C691448154F02F0BD
:10869000AEFCB4FBF7F34FF47A72B4FBF2F102FBD9
:1086A0001141019107FB13440F49B4FBF2F430442C
:1086B00000942A4602F06CFC0C49084803B0BDE85F
:1086C000F04002F085BC00250024DEE70849304672
:1086D00002F07EFCF0E700BF02BD0F007D840020A9
:1086E000DBE5B15140420F000FBD0F0036BD0F005A
:1086F0002ABD0F0010B503461C1A944200DB10BDC2
:108700000C781CB1013103F8014BF5E72024FAE79E
:108710002DE9F3410C4605464FF400720021204636
:10872000FBF700FE6DB95F493E22204602F008FCCF
:10873000552384F8FE31AA2384F8FF3102B0BDE846
:10874000F081B5F5017F2DD8691EB1F5817F24BF79
:108750006FF4817805EB0801C9B10B02C1EBC1517F
:1087600003F5807004EB412440F6C3251A1FB2F5CF
:108770002C6F03F1010206D2AB4214BF91B24FF647
:10878000FF7124F8131090421346EFD1D6E7F82377
:10879000237004F109022346FF2003F8010F9342DE
:1087A000FBD1DAE7B5F5027F3DD86FF4017C654473
:1087B0003DB920463C490B22FFF79CFF2823E3727A
:1087C00020343A492E014FF0000801EB05256FF0E7
:1087D0000507022EB2D80B2229462046FFF78AFF52
:1087E00052236FF03C026FF059016374E3746376B7
:1087F000B31C84F80D80A773E1732274A27484F80B
:10880000148084F81580A775E17522766383E86883
:1088100030B102F0ECFBE061013620341035D8E7CE
:108820004FF4AC10F7E7224B9D4287D86FF40277E4
:10883000EA19012A0FD81D4B03EB0213D9680191E5
:10884000084602F0D4FB01990246204602B0BDE87A
:10885000F04102F075BB6FF4FD76A9190902B1F57C
:10886000801FBFF46BAF134B236003F1144303F578
:108870002C1303F6023363600F4BC4F8FC314FF442
:108880002C63A3614FF40053A5F20B254FF48072C3
:10889000A3600A4B6561E1602261E36104F120009D
:1088A000D4E700BF4ABD0F0075BD0F0008BE0F0022
:1088B000080101005546320A306FB10A15059A23A6
:1088C000F7B5654B14460A689A420D4639D103F153
:1088D00014434A6803F52C1303F602339A4230D14D
:1088E000D1F8FC215D4B9A422BD18B6823F4FF53C6
:1088F00023F01E039B049B0CB3F5005F21D10B6991
:10890000B3F5807F1DD1C86810F0FF0619D1CB697F
:10891000534A934205D0534A934215D0524A934248
:108920000FD1A0F58053B3F52C2F07D201234FF4BC
:10893000807205F12001FCF7DBF822E0B0F5805FE2
:108940001FD34FF0FF3021E001276772CB68B3F1EE
:10895000102F1DD104223431684602F0F1FA0422AE
:1089600005F138010DEB020002F0EAFA009BB3F5C5
:10897000742F03D1019BB3F57E2F01D02772E0E75E
:10898000A772AB69002B37D14FF4007003B0F0BD74
:10899000A3F57422B2F5204F28D2E27A01F1200724
:1089A000DAB9324A934218D32B69B34215D904225B
:1089B000B919684602F0C4FA009BD02B14D10422E6
:1089C000311D0DEB0200394402F0BAFA264B019A30
:1089D0009A424FF001030DD1E372E8682A6901233E
:1089E0003946A0F5A220A6E70836DDE7B3F5805F9B
:1089F000C7D301232372A4E72268934207D041F230
:108A000063018B4200D80AB14FF0FF3323606B69DA
:108A100041F263029342B7D803F0070204EBD30399
:108A2000012191401A7B1142C8B204D1616802430E
:108A300001311A736160D4E900329A42A4D3012053
:108A4000FCF738F8637A002B9ED0A37A002B9BD1D9
:108A50000123237298E700BF5546320A306FB10AEE
:108A60004028A5AD3C8263D615059A2300D80F0097
:108A70004FF08053D3F83001082802D1D3F83431B5
:108A800023B9A0F10D0358425841704701207047A7
:108A900042DF704743DF704744DF704712DF7047A3
:108AA00070B4234C94F8D8308BB3224B5B68C3F37B
:108AB00008032BB1014670BC1F48012200F050BFD3
:108AC000EFF310828ABB1D4B5A68C2F3C013120623
:108AD0002BD594F8D830002BFBD118E0D6F82C31E8
:108AE000D6F85021002113448A0002F1804202F599
:108AF0001C320131D2F80851D2F8302108292A4419
:108B00001344F1D194F8D820DBB29A42E6D894F815
:108B1000D8300133DBB284F8D83001230360BFF3CF
:108B20006F8FBFF34F8F70BC7047054EEAE700BFF1
:108B3000D8B2002000ED00E0A18A0F0000E100E0C3
:108B400000700240082870B5184B194E044618D121
:108B5000D3F8C054EA0327D4D6F8C0201548C3F888
:108B6000A027C3F8A457FFF79BFF182044433219EE
:108B700033592B443351D38815FA83F5ADB2D580E0
:108B800070BD00F59472142153F82250182242430C
:108B900001FB00330848B258C3F80027EDB2C3F810
:108BA000045700EB8400DEE70025DEE7007002409A
:108BB000D8B20020487002402870024010B410491A
:108BC000182303FB00114A8A0B8ACC689B1A8A8AF5
:108BD0009BB2934228BF13461422424302F18042C3
:108BE00002F51C32C2F80046C2F804362344CB60BA
:108BF000044B5DF8044B03EB8000FFF751BF00BF4F
:108C0000D8B200200470024007B54FF44053002052
:108C10005A68084B9A420AD18DF807000DF10700F7
:108C2000FFF73CFF9DF80700003818BF012003B094
:108C30005DF804FBDBE5B15107B5FFF7E5FF48B18F
:108C400001A8FFF729FF0198003818BF012003B0E1
:108C50005DF804FB4FF08043D3F80C0400F00110E2
:108C6000A0F1011358425841F1E77047014B8022AF
:108C70005A60704700E100E0024B8022C3F8842074
:108C8000704700BF00E100E0074BD3F80014D3F8B1
:108C900000240A43C3F800240022C3F858214FF4EB
:108CA0008002C3F8042370470070024070B58A78D0
:108CB0004E793E4C02F07F0318200C25D209584310
:108CC00005FB02000D79204406F0070645EA06255B
:108CD0000581C97801F00301012922D0012034491E
:108CE00000FA03F49AB903F10C05A840C1F8040393
:108CF000D1F8140503F594732043C1F8140541F825
:108D00002320BFF36F8FBFF34F8F012014E0023396
:108D10009840C1F80403D1F810352343C1F8103549
:108D2000EFE7082B09D04FF0E023D3F8F00D10F057
:108D3000010001D000BE002070BD1D4BDAB9B4F8AF
:108D4000D42012B18022C3F81C250022C3F8502180
:108D5000D3F8002312F4001208BFC3F85421144BB7
:108D60004FF44012C3F80423D3F8142542F4807260
:108D7000C3F81425C5E70022C3F82C21B4F8C82095
:108D800012B18022C3F81C25094BD3F8002312F43A
:108D9000001208BFC3F85421064AC3F80423D3F8CD
:108DA000102542F48072C3F81025AAE7D8B200203B
:108DB0000070024000082000F7B501F07F00CD09E7
:108DC0000E4618211E4C41430C2707FB051704EBE8
:108DD000070CE2510022ACF80430ACF8062038B1A0
:108DE00055BB0C44A37AF3B1A572FFF7ABFE1AE0B2
:108DF00003BB144BD3F88034C3F3C0139D4219D086
:108E00001148FFF74DFE94F8D8302BB194F8D830C4
:108E1000013BDBB284F8D830002300931A46314678
:108E2000184600F088FD012003B0F0BD054B01227B
:108E3000DA64F8E7002DF9D0FFF7C0FEF3E700BFD2
:108E4000D8B20020007002405070024011F07F0341
:108E500007D1084B01225A65BFF36F8FBFF34F8FC5
:108E60007047082B1EBF034B41F48071C3F81815DF
:108E7000F2E700BF0070024011F0770F10D0094BED
:108E800041F48072C3F81815C3F80C25CA0904BF51
:108E900001F5947143F82120BFF36F8FBFF34F8F1B
:108EA000704700BF0070024010B5002211469300C9
:108EB00003F1804303F51C330132082A596099629B
:108EC000F5D1064B064C5962DC22996420460021FC
:108ED000FBF728FA4023A382238110BD00700240D3
:108EE000D8B200202DE9F04FAB4BAC4AD3F80003C9
:108EF000002385B01C4601251E4605FA03F10842F1
:108F000009D052F8237037B10C4342F82360BFF305
:108F10006F8FBFF34F8F0133192BEED1E50706D5C5
:108F2000FFF7C2FF00210122084600F0DBFC14F429
:108F3000006F9B4D08D0984BD3F8A8369BB2A5F88C
:108F4000D230012385F8D730A0021BD5924BD3F83D
:108F50001435D90502D50820FFF7F4FD95F8D73070
:108F60005BB1B5F8D2200023012185F8D73092B249
:108F700000911846882100F0DEFC01220321002028
:108F800000F0A0FC620217D5834FD7F8006406F406
:108F90004073C7F80034F30507D5012204210020EF
:108FA00000F090FC0123C7F82C35B70504D5012249
:108FB0000521002000F086FC7A4B23405BB195F838
:108FC000D830002B40F0C4804FF0E023D3F8F03DC0
:108FD000DE0700D500BE20022BD56F4BD3F88014DE
:108FE000C9B28DF80810D3F88424D2B28DF80920C4
:108FF000D3F888048DF80A00D3F88C048DF80B00A0
:10900000D3F890048DF80C00D3F894048DF80D007B
:10901000D3F898048DF80E00D3F89C348DF80F30F7
:10902000490601D1052A04D0012202A9002000F03E
:109030006CFC5B4FDFF860A1B84600264FF00109D9
:109040004FF0140B06F10C0309FA03F32342F1B2BB
:1090500016D00BFB06A3082ED3F80837DBB27BD063
:10906000B8F808209A4277D1182303FB0653B8F8C2
:109070000420DB889BB29A426ED909B9CAF84C9099
:109080000136092E08F11808DCD1474B2340002B8C
:109090005BD0414BD3F86C84C3F86C84BFF36F8F03
:1090A000BFF34F8F14F4806407D0D3F88044D3F813
:1090B00080341B06C4F3C0145DD54FF0000ADFF8FE
:1090C000E09000264FF0010B0BFA06F313EA080FAD
:1090D000F0B201D1B6B9ACB12F4B142202FB06336A
:1090E000D3F80416182303FB06535A8A11FA82F2A6
:1090F00092B25A825A8AB9F8101092B291423DD96E
:10910000FFF75CFD0136082E09F11809DCD10024B7
:1091100001264FF0180904F1100306FA03F313EACD
:10912000080FE0B203D15CB9BAF1000F08D009FB17
:109130000452B988D3889BB299422AD9FFF702FD1D
:109140000134082C07F11807E5D105B0BDE8F08F10
:10915000002385F8D8303EE7182303FB0653DA884E
:10916000A8F80420DA88CDF80090002392B21846BF
:1091700000F0E1FB84E74FF0010AA0E75A8ACDF83E
:1091800000B0002340F0800192B2184600F0D3FBFB
:10919000B8E79672D4E700BF007002400071024049
:1091A000D8B20020FCFB1F0000040001012813B509
:1091B000044600F0BF80022855D0002851D1764BDC
:1091C000D3F80025002A4CD14FF40062C3F80024E4
:1091D000BFF36F8FBFF34F8FFFF74AFC60B16F4B48
:1091E000D3F8001C032269BB49F27531C3F8001C97
:1091F000C3F8142DC3F8001C4FF08053D3F830315E
:10920000082B0CD1654BD3F8001CC022E9B949F2F8
:109210007531C3F8001CC3F8142CC3F8001C5E4B56
:109220000124C3F80045BFF36F8FBFF34F8FFFF7E3
:1092300003FDB0B9FFF7E8FC50B102B0BDE8104043
:10924000FFF726BCC3F8142DD6E7C3F8142CE6E7C5
:109250004FF08043C3F80001D3F800210192019A36
:109260001C6002B010BD4C4CD4F804351BB1FFF7A4
:10927000E3FC0028F5D1D4F800341B05FBD54FF4EE
:109280000063C4F80034BFF36F8FBFF34F8F4FF00C
:109290008053D3F83031082B0CD1404BD3F8001C4D
:1092A00000293FD149F27532C3F8002CC3F8141CD1
:1092B000C3F8002CFFF7DCFB58B1384BD3F8001C87
:1092C000A1BB49F27532C3F8002CC3F8141DC3F8D2
:1092D000002C4FF08053D3F83031082B2E4B0AD19D
:1092E00040F2E372C3F800284022C3F80428BFF319
:1092F0006F8FBFF34F8F80222949C3F81C25C3F815
:109300000413284BC3F884215A60FFF795FC00280A
:10931000FBD0214B0122C3F80425BFF36F8FBFF3AD
:109320004F8F9EE70022C3F8142CC3E70022C3F836
:10933000142DCEE7184BD3F80025002A91D0002237
:10934000C3F80425BFF36F8FBFF34F8F15498020FB
:10935000C1F88400D3F80013C3F80813C3F800253C
:10936000BFF36F8FBFF34F8FFFF74EFC78B1FFF75E
:1093700091FB0D4B5A68C2F30802003A18BF012254
:109380000221002002B0BDE8104000F09BBA4FF06F
:1093900080435C60EDE700BF0070024000E00640E3
:1093A0000514800100E100E000ED00E010B5448903
:1093B0008B18A342C1BF80891218891888B2D8BF00
:1093C00098B210BD10B50446FFF7F0FFA3888342A2
:1093D00000D910BDC01A80B2F9E7828810B544895F
:1093E0008B1AA342C1BF8389D218891A89B2D8BF08
:1093F00099B2018210BD2DE9F84388469946BDF81F
:109400002410BDF820305D1A8B42ACB238BF85897C
:10941000174638BF651B828838BFACB2A2420646E9
:1094200005D21946FFF7D9FF018A848889B24445DD
:1094300028D9A4EB080294B24C454246304628BFD6
:109440004C46FFF7BFFFB388F288D6F800C0011979
:10945000994202FB00F107DC62436144384601F0A7
:109460006FFD2046BDE8F8831D1AADB26A43614422
:10947000384601F065FDF0883168621B424300FB0D
:109480000570ECE70024ECE72DE9F041BDF8188009
:1094900043451746A3EB080538BF8289ADB238BFF4
:1094A000AD1A828838BFADB2AA420E4604461946AC
:1094B00002D2FFF792FF8588B5420ED93246414667
:1094C0002046FFF77FFFE288216802FB0011384643
:1094D00001F036FD0120BDE8F0810020FBE7B2F588
:1094E000004F10D882805200C38092B29DF80030A5
:1094F0000372531E438152420023C3810160828163
:109500000382012070470020704710B5C489018A8A
:109510000246A4B289B2631A8C4298B23EBF9389C4
:10952000C01A80B210BDC289038A92B29BB2D31A0C
:1095300058425841704710B5C189028A848889B25F
:1095400092B2914238BF8089A1EB02039BB23CBF2B
:109550001B1A9BB2E01A80B210BD37B5C389058AC9
:10956000ADB204460A4600959BB20021FFF78CFF7E
:10957000218A054682B289B22046FFF717FF208272
:10958000284603B030BD73B5C589068AADB2B6B200
:1095900004461346CDE900560A460021FFF72BFF8B
:1095A000218A0546024689B22046FFF7FFFE208247
:1095B000284602B070BD70B5C589028AADB292B2BC
:1095C000AA42A5EB020388BF82899BB288BF9B1A7F
:1095D000828888BF9BB29A4204460E4601D1007A27
:1095E00090B1002229462046FFF7ECFEE28823686E
:1095F000314602FB003001F0A3FC0122294620463F
:10960000FFF7D4FEE081012070BD2DE9F843054647
:109610000F4614468AB3B0F80E80037A018A868812
:10962000B0F806901FFA88F889B24BBB884538BF5E
:109630008289A8EB01039BB23CBF9B1A9BB2F31A31
:109640009BB29C4228BF1C46002241462846FFF799
:10965000B9FE0319B342D5F800C009FB00F317DCCB
:1096600009FB04F239460CEB030001F069FC2246C9
:1096700041462846FFF79AFEE8812046BDE8F88378
:1096800096423FBF941B09FB0477C1813446DBE758
:10969000361AB6B209FB06F239460CEB030001F0AC
:1096A0004FFCE9882868A21B4A4301FB0671DCE7EE
:1096B0000023C381038283885B009BB25A1E5B42F6
:1096C00042818381012070470172012070470000B0
:1096D0000B4B63B10B4B1B78834206D90A4B1B68BB
:1096E00000EB400003EBC0007047C01AC0B2012875
:1096F00003D8064B00EB4000F4E70020704700BFA2
:1097000000000000B8B30020B4B3002038BE0F0042
:1097100070B53722002105460E480F4EFAF702FEBB
:109720001022FF210D48FAF7FDFD1222FF210C48FF
:10973000FAF7F8FD00F086FD00242046FFF7C8FF89
:1097400043682846984733780134E4B20133A34292
:10975000F3DA70BDB9B30020B8B30020BCB3002069
:10976000CCB3002037B50C460546C868019200F01E
:1097700071FDE368019A0021284603B0BDE830403E
:10978000184773B5054614463AB90378012B04D13E
:1097900010460191FFF770FA0199281DFFF70BFFA2
:1097A00006462CB92B78012B02D12046FFF75EFA32
:1097B00036B94FF0E023D3F8F03DDB0700D500BE0B
:1097C00002B070BD024B5878003818BF01207047B6
:1097D000B9B30020024B1878C0F38000704700BF77
:1097E000B9B3002038B5134C134837220021FAF7DB
:1097F00099FD201DFFF75CFF104B1C60104B23B13F
:109800001048AFF30080104B18600E4D0024204626
:10981000FFF75EFF036898472B780134E4B2013309
:10982000A342F4DA0020FFF720FA0020FFF71EFA27
:10983000012038BD00860020B9B30020F0B300201D
:1098400000000000B8B30020B4B3002010B4437887
:10985000023B0A46032B15D8DFE803F0022C1B233A
:10986000164B1978CC0725D519786FF300011970BC
:10987000197800246FF3410119705C70197864F352
:10988000820119700E4B5DF8044B01461868FFF712
:1098900078BF0A4B1978C9070CD5197841F0040133
:1098A000EFE706490B78DB0704D50B786FF38203EB
:1098B0000B70E7E75DF8044B704700BFB9B30020B9
:1098C000F0B300201FB50023CDE901338DF804006B
:1098D0008DF8051001A811460393FFF7B7FF05B0F7
:1098E0005DF804FB1FB50023CDE9013303938DF828
:1098F000040001238DF8081001A811468DF80530E9
:10990000FFF7A4FF05B05DF804FB1FB51446002364
:109910000822CDE9013303938DF8040006230DEBF3
:1099200002008DF8053001F00BFB214601A8FFF77E
:109930008DFF04B010BD1FB50024CDE901448DF8A2
:10994000040007208DF805008DF8081001A89DF887
:10995000181003928DF80930FFF778FF04B010BD9E
:109960001FB54FF40063CDE90130039101A8114602
:10997000FFF76CFF05B05DF804FB0000CB7803F047
:109980000303022B10B414D0032B30D0012B24D1AD
:109990001E4B4C799B780A79022B04F0070440F2A5
:1099A000FF3342EA042208BF4FF480639A421ADD73
:1099B0000CE04A790B7902F0070243EA0223134ACA
:1099C0009278022A0DD1B3F5007F0CD04FF0E0233E
:1099D000D3F8F03DDB0700D500BE00205DF8044B56
:1099E0007047402BF2D85DF8044BFFF75FB9074B87
:1099F0004A799B78022B0B7902F007020CBF4FF4D7
:109A00008064402443EA0223A342D0E7B9B3002094
:109A10002DE9F047DDE9085681460C4690469A4606
:109A20000027B84501DC01200EE06378052B04D146
:109A3000E37803F0030353450AD04FF0E023D3F853
:109A4000F03DDA0702D40020BDE8F08700BEFAE757
:109A500021464846FFF792FF38B94FF0E023D3F88C
:109A6000F03DDB07EFD500BEEEE7A378DA0914BFBF
:109A700033702B70237801371C44D2E70B4B01F075
:109A80007F0203EB420303EBD1112031487910F040
:109A9000010008D14B795B0706D44B7943F00403EE
:109AA0004B71012070470020704700BFB9B3002000
:109AB0000B4B01F07F0203EB420303EBD11120318A
:109AC0004B7913F0010209D14B79C3F380005B0796
:109AD00005D54B7962F382034B71704700207047C4
